:100000000C9463000C948B000C948B000C948B006C
:100010000C948B000C948B000C948B000C948B0034
:100020000C948B000C948B000C948B000C948B0024
:100030000C948B000C948B000C948B000C948B0014
:100040000C949B040C948B000C948B000C948B00F0
:100050000C948B000C948B000C948B000C948B00F4
:100060000C948B000C948B000000000024002700EF
:100070002A0000000000250028002B0004040404CE
:100080000404040402020202020203030303030342
:10009000010204081020408001020408102001021F
:1000A00004081020000000080002010000030407FB
:1000B00000000000000000000A0B0C0D0E0F0001F4
:1000C00002030405E80911241FBECFEFD8E0DEBF0C
:1000D000CDBF11E0A0E0B1E0E8EBF5E102C0059092
:1000E0000D92AA30B107D9F721E0AAE0B1E001C032
:1000F0001D92A634B207E1F710E0C3E6D0E004C0D9
:100100002197FE010E94D40AC236D107C9F70E9486
:10011000E5040C94DA0A0C94000090E0FC01EC5524
:10012000FF4F2491FC01E057FF4F3491FC01E4584C
:10013000FF4FE491EE23C9F0222339F0233001F17F
:10014000A8F4213019F1223029F1F0E0EE0FFF1F61
:10015000EE58FF4FA591B4918FB7F894EC916111CF
:1001600026C030953E233C938FBF08952730A9F0D9
:100170002830C9F0243049F7809180008F7D03C07A
:10018000809180008F7780938000DFCF84B58F7758
:1001900084BDDBCF84B58F7DFBCF8091B0008F779E
:1001A0008093B000D2CF8091B0008F7DF9CF3E2BED
:1001B000DACF682F80912A010E948D008091420140
:1001C000909143018230910538F0880F991F880F74
:1001D000991F05970197F1F7089581E00C94D900D4
:1001E00080E00C94D9006F927F928F929F92AF9291
:1001F000BF92CF92DF92EF92FF920F931F93CF9314
:10020000DF93762E982F9062892E912C5401AA0CA0
:10021000AB2CAA1CBB08640136E0D594C7943A9570
:10022000E1F7740154E0F594E7945A95E1F78401FD
:1002300063E0159507956A95E1F7E401D595C795B3
:10024000D595C795959487948170682E442309F4B9
:100250005CC00E94F000AB2809F447C0439A429A60
:10026000349945C090E04298C0FE43C0439A429AF8
:10027000349990644298439A429A34999062429891
:10028000E0FE39C0439A429A34999061429800FF47
:1002900034C0439A429A349998604298C0FF2FC064
:1002A000439A429A34999460429880FE2AC0439AB5
:1002B000429A349992604298662029F1439A429A70
:1002C00034999160429890933001DF91CF911F91C2
:1002D0000F91FF90EF90DF90CF90BF90AF909F90E5
:1002E0008F907F906F900C94ED004398B8CF90E87A
:1002F000BACF4398BCCF4398C6CF4398CBCF43984F
:10030000D0CF4398D5CF4398DACF0E94F000AB28E6
:1003100009F471C0439A429A34996FC090E04298B0
:10032000C0FE6DC0439A429A349990644298439AB1
:10033000429A349990624298E0FE63C0439A429A8E
:1003400034999061429800FF5EC0439A429A349972
:1003500098604298C0FF59C0439A429A3499946079
:10036000429880FE54C0439A429A349992604298CF
:10037000662009F44EC0439A429A3499916042989B
:1003800090933001872D90E09C01220F232F221F94
:10039000330B232B09F43FC0439A429A26B142986B
:1003A00086FF3BC0439A429A26B1429885FF37C0E8
:1003B000439A429A26B1429884FF33C0439A429AA4
:1003C00026B1429883FF2FC0439A429A26B14298A1
:1003D00082FF2BC0439A429A96B1429881FF27C070
:1003E000439A429A86B1429870FE23C0439A429A39
:1003F00086B142986ACF43988ECF90E890CF4398C9
:1004000092CF43989CCF4398A1CF4398A6CF4398CF
:10041000ABCF4398B1CF4398C0CF4398C4CF439854
:10042000C8CF4398CCCF4398D0CF4398D4CF4398EC
:10043000D8CF4398DCCF6091370161FD0BC062607B
:100440006093370140E080E00E94F3008BE19EE47E
:100450000197F1F70895CF93C82F0E94F0002C2F39
:1004600030E04398429A349B66C080E842984398B3
:10047000429A3499806442984398429A34998062AF
:100480004298A90194E0559547959A95E1F7452B37
:1004900009F453C0439A429A34998061429823FFE9
:1004A0004EC0439A429A34998860429822FF49C0CC
:1004B000439A429A34998460429821FF44C0439AF7
:1004C000429A349982604298C0FF3FC0439A429A50
:1004D00034998160429880933001439A429A349BC8
:1004E00036C0C0E84298439A429A3499C064429810
:1004F000439A429A3499C0624298439A429A3499F4
:10050000C0614298439A429A3499C8604298439A8B
:10051000429A3499C4604298439A429A3499C2608C
:100520004298439A429A3499C16042980E94ED00E1
:100530008C2FCF91089580E099CF4398ACCF43980A
:10054000B1CF4398B6CF4398BBCF4398C0CFC0E05C
:10055000C9CFCF93DF93EC0186E00E942B02877D09
:100560002297E9F045E550E060E070E040933E01FD
:1005700050933F016093400170934101C0E0C82B4C
:1005800040E06C2F86E00E94F30086E00E942B0280
:1005900091E0C81390E0892FDF91CF9108954BE946
:1005A00050E060E070E040933E0150933F01609363
:1005B000400170934101C0E2E2CF0F931F93CF93AC
:1005C000DF93D82F8B01C42F0E94F0002D2F2062C3
:1005D00030E0C901880F892F881F990B892B09F4F6
:1005E00074C0439A429A349972C080E0429826FFC0
:1005F00070C0439A429A349980644298439A429ACE
:1006000034998062429824FF66C0439A429A349992
:100610008061429823FF61C0439A429A349988606E
:10062000429822FF5CC0439A429A3499846042986F
:1006300021FF57C0439A429A349982604298D0FF72
:1006400052C0439A429A3499816042988093300113
:10065000F801C15008F459C08191282F30E0220FD1
:10066000232F221F330B232B09F43FC0439A429AB6
:1006700096B1429886FF3BC0439A429A96B14298FF
:1006800085FF37C0439A429A96B1429884FF33C09F
:10069000439A429A96B1429883FF2FC0439A429A56
:1006A00096B1429882FF2BC0439A429A96B14298E3
:1006B00081FF27C0439A429A96B1429880FF23C097
:1006C000439A429A86B14298C4CF43988BCF80E830
:1006D0008DCF43988FCF439899CF43989ECF43981F
:1006E000A3CF4398A8CF4398ADCF4398C0CF4398AA
:1006F000C4CF4398C8CF4398CCCF4398D0CF43982A
:10070000D4CF4398D8CF4398DCCFDF91CF911F91BE
:100710000F910C94ED000E94F0004398429A349B94
:1007200049C080E84298439A429A3499806442983A
:100730004398429A349980624298439A429A3499F3
:10074000806142984398429A3499886042984398CD
:10075000429A3499846042984398429A34998260CC
:1007600042984398429A349981604298809330012C
:100770004398429A86B14298439A429A86B14298E7
:10078000439A429A86B14298439A429A86B14298D5
:100790004398429A86B142984398429A86B14298C9
:1007A000439A429A86B14298439A429A86B14298B5
:1007B0000C94ED0080E0B6CFCF93DF9390E0FC0186
:1007C000E057FF4F249184589F4FFC018491882368
:1007D000D1F090E0880F991FFC01E859FF4FA591D7
:1007E000B491FC01EE58FF4FC591D49161110EC038
:1007F0009FB7F8948C91E22FE0958E238C932881FB
:10080000E223E8839FBFDF91CF9108958FB7F894DB
:10081000EC91E22BEC938FBFF6CF1F93CF93DF9336
:10082000182FEB0161E00E94DC03209739F460E0AF
:10083000812FDF91CF911F910C948D00CF3FD10577
:1008400011F461E0F5CFE12FF0E0EC55FF4FE491BA
:10085000E33031F140F4E130B1F0E230E1F0C038A2
:10086000D1057CF7E4CFE73029F1E83059F1E430E5
:10087000B1F780918000806280938000D0938B00DC
:10088000C0938A0004C084B5806884BDC7BDDF9171
:10089000CF911F91089584B5806284BDC8BDF7CF04
:1008A00080918000806880938000D0938900C093FD
:1008B0008800EDCF8091B00080688093B000C09335
:1008C000B300E5CF8091B00080628093B000C09308
:1008D000B400DDCF3FB7F89480910F0190911001E3
:1008E000A0911101B091120126B5A89B05C02F3F20
:1008F00019F00196A11DB11D3FBFBA2FA92F982F46
:100900008827BC01CD01620F711D811D911D42E040
:10091000660F771F881F991F4A95D1F708952FB743
:10092000F89460910B0170910C0180910D019091F0
:100930000E012FBF08951F920F920FB60F92112430
:100940002F933F938F939F93AF93BF9380910B010E
:1009500090910C01A0910D01B0910E0130910A010E
:1009600023E0230F2D3758F50196A11DB11D2093CB
:100970000A0180930B0190930C01A0930D01B09399
:100980000E0180910F0190911001A0911101B09181
:1009900012010196A11DB11D80930F0190931001CA
:1009A000A0931101B0931201BF91AF919F918F91CC
:1009B0003F912F910F900FBE0F901F90189526E832
:1009C000230F0296A11DB11DD2CF789484B5826009
:1009D00084BD84B5816084BD85B5826085BD85B5E3
:1009E000816085BD80916E00816080936E00109261
:1009F00081008091810082608093810080918100DC
:100A0000816080938100809180008160809380006C
:100A10008091B10084608093B1008091B0008160CA
:100A20008093B00080917A00846080937A008091F6
:100A30007A00826080937A0080917A00816080934E
:100A40007A0080917A00806880937A001092C100C9
:100A500061E089E00E94DC0361E08AE00E94DC033F
:100A600061E083E00E94DC0361E08BE00E94DC0334
:100A700061E082E00E94DC0360E085E10E94DC032B
:100A80008CED95E090930101809300019093030118
:100A9000809302013C98449844983B9A439A3A9A2E
:100AA000429880912801909129018F3F980709F47D
:100AB000B1C020912A0130912B012F3F320709F458
:100AC000A9C08217930741F061E00E94DC0361E056
:100AD00080912A010E94DC038091280190912901D4
:100AE00020912A0130912B018217930719F060E0C1
:100AF0000E948D0081E00E94D9000E946A044B018F
:100B00005C01F5E0CF2ED12CE12CF12C0E946A047F
:100B1000681979098A099B09683E73408105910526
:100B2000A8F381E0C81AD108E108F10898EE890E0F
:100B300093E0991EA11CB11CC114D104E104F1047D
:100B400029F740E06FE584E00E94F30090E080E048
:100B50000E94A9028DE10E942B02C82F0E948B03E4
:100B60008DE10E942B0291E0C81390E09093380130
:100B7000882349F0C81302C00E948B0340E060E064
:100B80008DE10E94F30010923A0140E060E08CE1B8
:100B90000E94F30010923C0140E06FE381E00E946C
:100BA000F30040E063E082E00E94F30080E2809383
:100BB0003101C1E140E0609131018C2F0E94F300CE
:100BC000CF5FC731B9F740E063E083E00E94F300F4
:100BD00085E080933B0140E06CE40E94F30040E03C
:100BE00060E787E00E94F30041E06FEF82EE0E9431
:100BF000F30041E06FEF81EE0E94F30040E06CE013
:100C000080E00E94F30080E00E942B028093370175
:100C10000E941B0240E06FE381E00E94F30080919C
:100C20003A01811117C08DE10E942B02682F666086
:100C300040E08DE10E94F3008CE10E942B02682FBE
:100C4000636040E08CE10E94F30081E080933C010E
:100C500080933A018DE10E942B02682F646040E08E
:100C60008DE10E94F3008CE10E942B02682F6F63DC
:100C700040E08CE10E94F30081E080933C0140E081
:100C800065E584E00E94F30040E06CE485E00E94AA
:100C9000F30082E090E00E94A90286E00E942B020D
:100CA000887F682F616040E086E00E94F300E9EBF6
:100CB000F0E0849140913B0164E071E00E94DD022C
:100CC00082E00E942B02EFEBF0E0E49161E070E043
:100CD00001C0660FEA95EAF7682B40E082E00E94C7
:100CE000F3000E941B02609137016160609337013D
:100CF00040E080E00E94F30040E060E787E00E946F
:100D0000F300809128019091290120912A013091CE
:100D10002B018217930719F061E00E948D008091EA
:100D20003901882309F4EFC040913B0162E371E08F
:100D30008AE00E94DD0244244A9453E0552E612C3F
:100D4000712C6BE1C62E6EEFD62EEE24EA94FE2CAB
:100D500075EE872E99249394A12CB12CECED2E2EB8
:100D6000E5E03E2E11E002E30E948F0420911F0176
:100D7000309120014091210150912201621B730B9F
:100D8000840B950B693E73408105910588F1309283
:100D900001012092000130920301209202010E9481
:100DA0008F0420911401309115014091160150914A
:100DB0001701621B730B840B950B6536710581055A
:100DC0009105B0F00E948F04609314017093150197
:100DD000809316019093170180911301882309F4E1
:100DE000A8C0109213016091130182E00E948D004F
:100DF00041E06FEF8FEF0E94F3008091300190E0AF
:100E0000959587958770863008F0E8C180913A0102
:100E1000882309F4C8C080913C01C0E0D3E081116F
:100E200007C0C0913101DC2FC43008F0D3E0CD1BE6
:100E30000E94F000439A429A34997EC080E0429822
:100E40004398429A349980644298439A429A3499DA
:100E5000806242984398429A349980614298439ABA
:100E6000429A3499886042984398429A34998460AF
:100E700042984398429A349982604298439A429A9F
:100E800034998160429880933001E4E2F1E0D150DE
:100E900008F464C02191822F90E0880F892F881F69
:100EA000990B892B09F44AC0439A429A86B1429819
:100EB00026FF46C0439A429A86B1429825FF42C017
:100EC000439A429A86B1429824FF3EC0439A429A7E
:100ED00086B1429823FF3AC0439A429A86B142981B
:100EE00022FF36C0439A429A86B1429821FF32C00F
:100EF000439A429A86B1429820FF2EC0439A429A62
:100F000086B14298C4CF82E00E942B02EEEBF0E063
:100F1000E49121E030E001C0220FEA95EAF7209544
:100F2000622F682340E082E00E94F30010923901B2
:100F300002CF1093130157CF80E881CF4398B5CFEC
:100F40004398B9CF4398BDCF4398C1CF4398C5CFFD
:100F50004398C9CF4398CDCF4398D1CFC15008F122
:100F60004398429A86B142984398429A86B14298F1
:100F70004398429A86B142984398429A86B14298E1
:100F80004398429A86B142984398429A86B14298D1
:100F90004398429A86B142984398429A86B14298C1
:100FA000DDCF0E94ED0080913C01C0E0D4E08111D2
:100FB00007C0C0913101DC2FC53008F0D4E0CD1B53
:100FC0000E94F0004398429A349956C080E04298BB
:100FD000439A429A349980644298439A429A349947
:100FE000806242984398429A34998061429843982B
:100FF000429A3499886042984398429A349984601E
:1010000042984398429A349982604298439A429A0D
:1010100034998160429880933001E0E0F1E0D15052
:1010200078F1439A429A349929C080E04298439AD1
:10103000429A349980644298439A429A34998062E1
:101040004298439A429A349980614298439A429ACC
:10105000349988604298439A429A349984604298BD
:10106000439A429A349982604298439A429A3499B8
:10107000816042988193D3CF80E8A9CF80E8D6CF12
:10108000C15008F1439A429A86B14298439A429AD3
:1010900086B14298439A429A86B14298439A429ABC
:1010A00086B14298439A429A86B14298439A429AAC
:1010B00086B14298439A429A86B14298439A429A9C
:1010C00086B14298DDCF0E94ED0040E060E487E009
:1010D0000E94F300809123018F5F809323010E947F
:1010E0008F042091190130911A0140911B015091F8
:1010F0001C01621B730B840B950B693E73408105C9
:10110000910520F10E948F046093190170931A01D8
:1011100080931B0190931C0147E440937C008091D5
:101120007A00806480937A0080917A0086FDFCCFFB
:10113000A0917800B09179002FEF30E00E94CD0AA5
:10114000A30192010E940C0A2093250160912501C0
:1011500070E090E080E00E946E0AC1E022E934E68F
:101160004BE453E40E94670A18160CF4C0E0C093E5
:1011700018010E948F0420911401309115014091B3
:10118000160150911701621B730B840B950B653F81
:10119000714081059105C0F00E948F046093140195
:1011A00070931501809316019093170141E0C427B5
:1011B00080911301C81708F0ADC01092130160911F
:1011C000130182E00E948D000E948F0460931F0132
:1011D00070932001809321019093220180911D0141
:1011E00090911E019C012F5F3F4F30931E01209371
:1011F0001D01833C9F4140F1809123018A3010F40E
:101200001092240195EF980F933118F44AE040931F
:10121000240191EE980F9D3110F40093240193EC7A
:10122000980F933118F496E4909324019FEA980F55
:10123000933108F072C02AE5209324011092230113
:1012400010921E0110921D0180918100887F8460A0
:10125000809381008091B100887F86608093B10087
:1012600020910001309101012C3E85E0380708F4FF
:101270005BC050E040E02B5E354041095109AFEFC3
:10128000B0E00E942B0AA50194010E940C0AB9014A
:101290002F3F310519F014F06FEF70E077FF02C0B7
:1012A00070E060E08AE00E940D0460E089E00E9446
:1012B0008D0020910201309103012C3E45E034075E
:1012C00008F45CC050E040E02B5E35404109510914
:1012D000AFEFB0E00E942B0AA50194010E940C0A16
:1012E000B9012F3F310519F014F06FEF70E077FF6F
:1012F00002C070E060E08BE00E940D0460E083E0DB
:101300000E948D0080E090E0892B09F42DCD0E9491
:10131000000029CD1093130152CF853608F48ECFEB
:1013200044E6409324018ACF2D3C95E03907D8F458
:1013300050E040E02D5C354041095109AFEFB0E08D
:101340000E942B0AA70196010E940C0AB9012F3FA7
:10135000310519F014F06FEF70E089E00E940D0480
:1013600060E08AE0A4CF70E060E089E00E940D04B4
:1013700070E060E08AE00E940D049BCF2D3C85E088
:101380003807D8F450E040E02D5C35404109510960
:10139000AFEFB0E00E942B0AA70196010E940C0A51
:1013A000B9012F3F310519F014F06FEF70E083E0C1
:1013B0000E940D0460E08BE0A3CF70E060E083E06A
:1013C0000E940D0470E060E08BE00E940D049ACF53
:1013D000E7E2F1E08EE090E0928381838FE090E09D
:1013E0009483838380E896E9A8E9B0E085839683B7
:1013F000A783B08780E28287118A128A85E0848B76
:1014000081E0858B85E090E0A0E0B0E0838F948F51
:10141000A58FB68F13860895052E97FB1EF40094B2
:101420000E94230A57FD07D00E94360A07FC03D00A
:101430004EF40C94230A50954095309521953F4FDA
:101440004F4F5F4F089590958095709561957F4FB0
:101450008F4F9F4F08950E94580AA59F900DB49FEB
:10146000900DA49F800D911D11240895A1E21A2EC4
:10147000AA1BBB1BFD010DC0AA1FBB1FEE1FFF1F38
:10148000A217B307E407F50720F0A21BB30BE40B88
:10149000F50B661F771F881F991F1A9469F76095CF
:1014A0007095809590959B01AC01BD01CF01089589
:1014B000A29FB001B39FC001A39F700D811D112495
:1014C000911DB29F700D811D1124911D08950E94E0
:1014D000A90A08F481E00895E89409C097FB3EF456
:1014E00090958095709561957F4F8F4F9F4F992371
:1014F000A9F0F92F96E9BB279395F69587957795EF
:101500006795B795F111F8CFFAF4BB0F11F460FFAE
:101510001BC06F5F7F4F8F4F9F4F16C0882311F006
:1015200096E911C0772321F09EE8872F762F05C01A
:10153000662371F096E8862F70E060E02AF09A95B5
:10154000660F771F881FDAF7880F9695879597F9AA
:101550000895990F0008550FAA0BE0E8FEEF161644
:101560001706E807F907C0F012161306E407F50797
:1015700098F0621B730B840B950B39F40A2661F00B
:10158000232B242B252B21F408950A2609F4A140AE
:10159000A6958FEF811D811D08950E94580AB7FFFF
:1015A0000895821B930B0895EE0FFF1F0590F49191
:0815B000E02D0994F894FFCF2F
:0A15B800DC05DC056A69726B610056
:00000001FF
