:100000000C9466000C948E000C948E000C948E0060
:100010000C948E000C948E000C948E000C948E0028
:100020000C948E000C948E000C948E000C948E0018
:100030000C948E000C948E000C948E000C948E0008
:100040000C9408040C948E000C948E000C948E007A
:100050000C948E000C948E000C948E000C948E00E8
:100060000C948E000C948E000000000024002700E9
:100070002A0000000000250028002B0004040404CE
:100080000404040402020202020203030303030342
:10009000010204081020408001020408102001021F
:1000A00004081020000000080002010000030407FB
:1000B00000000000000000001112131415160A0BB6
:1000C0000C0D0E0F000102030405060911241FBECA
:1000D000CFEFD8E0DEBFCDBF11E0A0E0B1E0EEEEA3
:1000E000F3E102C005900D92A630B107D9F721E0E7
:1000F000A6E0B1E001C01D92A234B207E1F710E022
:10010000C6E6D0E004C02197FE010E94EF09C53683
:10011000D107C9F70E9452040C94F5090C94000011
:1001200090E0FC01EC55FF4F2491FC01E057FF4F9C
:100130003491FC01E458FF4FE491EE23C9F02223EF
:1001400039F0233001F1A8F4213019F1223029F1DE
:10015000F0E0EE0FFF1FEE58FF4FA591B4918FB75F
:10016000F894EC91611126C030953E233C938FBFEB
:1001700008952730A9F02830C9F0243049F780913C
:1001800080008F7D03C0809180008F7780938000F6
:10019000DFCF84B58F7784BDDBCF84B58F7DFBCF78
:1001A0008091B0008F778093B000D2CF8091B00063
:1001B0008F7DF9CF3E2BDACF682F809129010E94E5
:1001C000900080913E0190913F018230910538F07E
:1001D000880F991F880F991F05970197F1F70895C8
:1001E00081E00C94DC0080E00C94DC00CF93DF9382
:1001F000D82F0E94F3008D2F90E0439A429A349BAF
:100200003CC0C0E84298439A429A3499C0644298EC
:10021000439A429A3499C06242989C0194E0359581
:1002200027959A95E1F72E30310549F1439A429A84
:100230003499C061429883FF24C0439A429A34990A
:10024000C860429882FF1FC0439A429A3499C460A2
:10025000429881FF1AC0439A429A3499C2604298E8
:10026000D0FF15C0439A429A3499C16042980E94C7
:10027000F0008C2FDF91CF910895C0E0C3CF439859
:10028000D6CF4398DBCF4398E0CF4398E5CF439850
:10029000EACF1F93CF93DF93182FD62F0E94F3003E
:1002A000812F8F71806290E04398429A349B76C090
:1002B000C0E842984398429A3499C0644298439A5D
:1002C000429A3499C06242989C0144E03595279542
:1002D0004A95E1F72230310509F462C0439A429A07
:1002E0003499C061429883FF5DC0439A429A349921
:1002F000C860429882FF58C0439A429A3499C460B9
:10030000429881FF53C0439A429A3499C2604298FE
:1003100010FF4EC0439A429A3499C16042988D2F83
:1003200090E09C01220F232F221F330B232B09F473
:1003300041C0439A429A26B1429886FF3DC0439AF3
:10034000429A26B1429885FF39C0439A429A26B113
:10035000429884FF35C0439A429A26B1429883FF5F
:1003600031C0439A429A26B1429882FF2DC0439AE7
:10037000429A96B1429881FF29C0439A429A86B127
:100380004298D0FF25C0439A429A86B142980E9473
:10039000F0008C2FDF91CF911F910895C0E089CF9D
:1003A00043989DCF4398A2CF4398A7CF4398ACCF13
:1003B0004398B1CF4398BECF4398C2CF4398C6CF9E
:1003C0004398CACF4398CECF4398D2CF4398D6CF45
:1003D0004398DACFCF93C82F0E94F3008C2F90E080
:1003E0004398429A26B142984398429A26B142983D
:1003F0004398429A26B142989C0194E035952795FE
:100400009A95E1F7232B09F44AC0439A429A26B100
:10041000429883FF46C0439A429A26B1429882FF8F
:1004200042C0439A429A96B1429881FF3EC0439A95
:10043000429A86B14298C0FF3AC0439A429A86B126
:100440004298439A429A349B34C0C0E84298439AF7
:10045000429A3499C0644298439A429A3499C0624D
:100460004298439A429A3499C0614298439A429A78
:100470003499C8604298439A429A3499C460429829
:10048000439A429A3499C2604298439A429A349964
:10049000C16042980E94F0008C2FCF91089543983C
:1004A000B5CF4398B9CF4398BDCF4398C1CF4398B8
:1004B000C5CFC0E0CBCFFF920F931F93CF93DF93B5
:1004C000182FF62E072FD42F0E94F300812F8F7143
:1004D000806290E04398429A349974C0C0E0429898
:1004E0004398429A3499C0644298439A429A349904
:1004F000C06242989C0144E0359527954A95E1F702
:100500002230310509F460C0439A429A3499C0619F
:10051000429883FF5BC0439A429A3499C8604298DC
:1005200082FF56C0439A429A3499C460429881FF30
:1005300051C0439A429A3499C260429810FF4CC00D
:10054000439A429A3499C1604298EF2DF02FD150CE
:1005500008F454C08191282F30E0220F232F221F4E
:10056000330B232BD9F1439A429A96B1429886FFD6
:1005700037C0439A429A96B1429885FF33C0439A56
:10058000429A96B1429884FF2FC0439A429A96B1FC
:10059000429883FF2BC0439A429A96B1429882FFB9
:1005A00027C0439A429A96B1429881FF23C0439A4A
:1005B000429A96B1429880FF1FC0439A429A86B1F0
:1005C0004298C5CFC0E88BCF43989FCF4398A4CF24
:1005D0004398A9CF4398AECF4398B3CF4398C4CFA5
:1005E0004398C8CF4398CCCF4398D0CF4398D4CF2B
:1005F0004398D8CF4398DCCF4398E0CF0E94F000D7
:100600008C2FDF91CF911F910F91FF900895CF9381
:10061000DF9390E0FC01E057FF4F249184589F4FF7
:10062000FC0184918823D1F090E0880F991FFC0190
:10063000E859FF4FA591B491FC01EE58FF4FC591C9
:10064000D49161110EC09FB7F8948C91E22FE09580
:100650008E238C932881E223E8839FBFDF91CF9183
:1006600008958FB7F894EC91E22BEC938FBFF6CFFF
:100670001F93CF93DF93182FEB0161E00E940703D4
:10068000209739F460E0812FDF91CF911F910C9476
:100690009000CF3FD10511F461E0F5CFE12FF0E0FC
:1006A000EC55FF4FE491E33031F140F4E130B1F02B
:1006B000E230E1F0C038D1057CF7E4CFE73029F132
:1006C000E83059F1E430B1F7809180008062809386
:1006D0008000D0938B00C0938A0004C084B58068EA
:1006E00084BDC7BDDF91CF911F91089584B580620D
:1006F00084BDC8BDF7CF8091800080688093800062
:10070000D0938900C0938800EDCF8091B0008068BD
:100710008093B000C093B300E5CF8091B0008062B9
:100720008093B000C093B400DDCF3FB7F8948091C0
:100730000B0190910C01A0910D01B0910E0126B515
:10074000A89B05C02F3F19F00196A11DB11D3FBF09
:10075000BA2FA92F982F8827BC01CD01620F711DD8
:10076000811D911D42E0660F771F881F991F4A95D2
:10077000D1F708958F929F92AF92BF92CF92DF925E
:10078000EF92FF920E9495034B015C0185E0C82E19
:10079000D12CE12CF12C0E949503681979098A0962
:1007A0009B09683E734081059105A8F321E0C21AB8
:1007B000D108E108F10888EE880E83E0981EA11C9C
:1007C000B11CC114D104E104F10429F7FF90EF90AA
:1007D000DF90CF90BF90AF909F908F9008956091E1
:1007E000380161FD08C062606093380180E00E94BA
:1007F00049010C94BA0308952FB7F894609107014A
:10080000709108018091090190910A012FBF08950C
:100810001F920F920FB60F9211242F933F938F9335
:100820009F93AF93BF938091070190910801A0918E
:100830000901B0910A013091060123E0230F2D3701
:1008400058F50196A11DB11D209306018093070163
:1008500090930801A0930901B0930A0180910B01C4
:1008600090910C01A0910D01B0910E010196A11D76
:10087000B11D80930B0190930C01A0930D01B093D7
:100880000E01BF91AF919F918F913F912F910F904A
:100890000FBE0F901F90189526E8230F0296A11DFA
:1008A000B11DD2CFCF93DF93CDB7DEB728970FB668
:1008B000F894DEBF0FBECDBF789484B5826084BD4E
:1008C00084B5816084BD85B5826085BD85B5816054
:1008D00085BD80916E00816080936E0010928100D2
:1008E000809181008260809381008091810081608D
:1008F000809381008091800081608093800080914E
:10090000B10084608093B1008091B00081608093D9
:10091000B00080917A00846080937A0080917A00A0
:10092000826080937A0080917A00816080937A005F
:1009300080917A00806880937A001092C10061E013
:1009400089E00E94070361E08AE00E94070361E0FA
:1009500083E00E94070361E08BE00E94070361E0EF
:1009600082E00E94070360E085E10E9407038CEDAE
:1009700095E0909323018093220190932501809329
:100980002401809127019091280120912901309123
:100990002A018217930741F061E00E94070361E09A
:1009A000809129010E9407033C98449844983B9AFF
:1009B000439A3A9A42988091270190912801209178
:1009C000290130912A018217930719F060E00E94F3
:1009D000900081E00E94DC000E94BA036FE584E091
:1009E0000E94490186E00E94EA0145E550E060E08E
:1009F00070E040933A0150933B0160933C01709347
:100A00003D01682F677D86E00E94490186E00E94D3
:100A1000EA010E94F3004398429A86B14298439AB1
:100A2000429A86B142984398429A86B14298439A34
:100A3000429A86B142984398429A86B14298439826
:100A4000429A86B142984398429A86B14298439816
:100A5000429A86B142984398429A86B14298439A04
:100A6000429A86B14298439A429A86B14298439AF2
:100A7000429A86B142984398429A86B142984398E6
:100A8000429A86B14298439A429A86B14298439AD2
:100A9000429A86B142980E94F00060E08DE10E9487
:100AA000490160E08CE10E944901109230011092EE
:100AB000310160E787E00E9449016CE485E00E9413
:100AC000490182EE0E94F60081EE0E94F6006CE081
:100AD00080E00E94490180E00E94EA018093380191
:100AE0000E94EF036FE381E00E9449018DE10E94C3
:100AF000EA01682F66608DE10E9449018CE10E9445
:100B0000EA01682F63608CE10E94490111E01093B3
:100B10003001109331018DE10E94EA01682F646079
:100B20008DE10E9449018CE10E94EA01682F6F6308
:100B30008CE10E9449011093300165E584E00E9438
:100B400049016CE485E00E94490186E00E94EA01C7
:100B5000877D4BE950E060E070E040933A015093AC
:100B60003B0160933C0170933D01682F606286E019
:100B70000E94490186E00E94EA0186E00E94EA01A3
:100B8000887F682F616086E00E9449018FEF89832A
:100B90001A821B821C821D821E821F82188640912F
:100BA0003701BE016F5F7F4F8AE00E945B02409178
:100BB0003701BE016F5F7F4F80E10E945B02609151
:100BC0002F0181E10E944901EFEBF0E08491409117
:100BD000370160E071E00E945B02E9EBF0E0849194
:100BE00060912F010E94490182E00E94EA01E5EC38
:100BF000F0E0E49161E070E001C0660FEA95EAF789
:100C0000682B82E00E9449010E94EF036091380145
:100C100061606093380180E00E94490160E787E0ED
:100C20000E9449018091270190912801209129017A
:100C300030912A018217930719F061E00E94900019
:100C400080913201882309F4E7C04091370162E3C3
:100C500071E08AE00E945B0280913101882319F0E3
:100C600081EE0E94F60075EEC72EDD24D394E12CB0
:100C7000F12CEBE18E2EEEEF9E2EAA24AA94BA2C34
:100C8000FCED2F2EF5E03F2E0E94FC03AB01BC01D2
:100C900080911B0190911C01A0911D01B0911E013A
:100CA00088519C4FAF4FBF4F481759076A077B07C2
:100CB000B8F1309223012092220130922501209236
:100CC00024010E94FC03AB01BC01809111019091B1
:100CD0001201A0911301B09114018C599F4FAF4F95
:100CE000BF4F481759076A077B07D0F00E94FC03E3
:100CF000609311017093120180931301909314017A
:100D000080910F0190911001892B09F498C01092E5
:100D1000100110920F0160910F0182E00E9490007B
:100D200087E10E94EA0180FDCDC18FEF0E94F600AD
:100D3000082F10E0159507950E94F300439A429AF8
:100D400086B142984398429A86B14298439A429A11
:100D500086B142984398429A86B14298439A429A01
:100D600086B14298802F8770886A90E09595879524
:100D7000959587958A9709F469C0439A429A86B1F6
:100D8000429801FF65C0439A429A86B1429800FF9B
:100D900061C0439A429A86B14298EFE1F1E094E053
:100DA000915009F469C08191282F30E0220F232F40
:100DB000221F330B232B09F44FC0439A429A26B1CA
:100DC000429886FF4BC0439A429A26B1429885FFCB
:100DD00047C0439A429A26B1429884FF43C0439A3F
:100DE000429A26B1429883FF3FC0439A429A26B165
:100DF000429882FF3BC0439A429A26B1429881FFB3
:100E000037C0439A429A26B1429880FF33C0439A32
:100E1000429A86B14298C4CF82E00E94EA01E4EC93
:100E2000F0E0E49121E030E001C0220FEA95EAF71A
:100E30002095622F682382E00E9449010DCF81E056
:100E400090E09093100180930F0165CF439896CF67
:100E500043989ACF43989ECF4398B0CF4398B4CF4E
:100E60004398B8CF4398BCCF4398C0CF4398C4CFE2
:100E70004398C8CF4398CCCF0E94F00010912F0127
:100E800004E0143008F4012F80913001101B81110F
:100E900010E00E94F3004398429A86B14298439A28
:100EA000429A86B14298439A429A86B142984398B0
:100EB000429A86B142984398429A86B142984398A2
:100EC000429A86B142984398429A86B14298439A90
:100ED000429A86B14298E2E2F1E0015068F1439A09
:100EE000429A349927C080E04298439A429A3499B2
:100EF00080644298439A429A349980624298439A15
:100F0000429A349980614298439A429A349988600F
:100F10004298439A429A349984604298439A429AFA
:100F2000349982604298439A429A349981604298F7
:100F30008193D3CF80E8D8CF115008F1439A429AD9
:100F400086B14298439A429A86B14298439A429A0D
:100F500086B14298439A429A86B14298439A429AFD
:100F600086B14298439A429A86B14298439A429AED
:100F700086B14298439A429A86B14298DDCF0E9448
:100F8000F00060E787E00E9449010E94FC03609343
:100F90001B0170931C0180931D0190931E010E9400
:100FA000FC03AB01BC018091170190911801A09145
:100FB0001901B0911A0188519C4FAF4FBF4F48178C
:100FC00059076A077B0740F10E94FC0360931701F1
:100FD000709318018093190190931A0197E49093EC
:100FE0007C0080917A00806480937A0080917A00FE
:100FF00086FDFCCF80917800A0917900BA2FA82FB0
:101000002FEF30E00E94E8092FEF33E040E050E09E
:101010000E942709209320016091200170E090E058
:1010200080E00E9489092B013C0101E010E022E9E7
:1010300034E64BE453E40E948209181614F410E0DD
:1010400000E010931601009315010E94FC03AB0110
:10105000BC018091110190911201A0911301B091F6
:1010600014018C509E4FAF4FBF4F481759076A0766
:101070007B0740F10E94FC03609311017093120101
:10108000809313019093140122E934E64BE453E476
:10109000C301B2010E94820918160CF065C082E0FB
:1010A00090E020910F0130911001281739070CF4BE
:1010B0005EC01092100110920F0160910F0182E04A
:1010C0000E94900080918100887F836080938100DE
:1010D0008091B100887F82608093B10020912201CD
:1010E000309123012D3C95E0390708F047C050E0CE
:1010F00040E02D5C354041095109AFEFB0E00E945E
:101100004609A50194010E942709B90189E00E94BE
:10111000380360E08AE00E94900020912401309121
:1011200025012D3C95E0390708F04CC050E040E027
:101130002D5C354041095109AFEFB0E00E944609EE
:10114000A50194010E942709B90183E00E94380398
:1011500060E08BE00E94900080E090E0892B09F431
:1011600093CD0E94000090CD81E090E09ACF81E085
:1011700090E09093100180930F019FCF2C3E85E06B
:101180003807A8F050E040E02B5E35404109510996
:10119000AFEFB0E00E944609A70196010E9427091F
:1011A000B9018AE00E94380360E089E0B4CF70E0C2
:1011B00060E089E00E94380370E060E08AE00E940D
:1011C0003803ABCF2C3E85E03807A8F050E040E074
:1011D0002B5E354041095109AFEFB0E00E9446094E
:1011E000A70196010E942709B9018BE00E943803EC
:1011F00060E083E0AFCF70E060E083E00E943803FE
:1012000070E060E08BE00E943803A6CFE6E2F1E0F8
:101210008EE090E0928381838FE090E094838383DB
:1012200080E896E9A8E9B0E085839683A783B08734
:1012300080E28187128685E0818B85E090E0A0E0E6
:10124000B0E0808F918FA28FB38F14860895052E02
:1012500097FB1EF400940E943E0957FD07D00E94A0
:10126000510907FC03D04EF40C943E09509540956B
:10127000309521953F4F4F4F5F4F08959095809542
:10128000709561957F4F8F4F9F4F08950E9473090E
:10129000A59F900DB49F900DA49F800D911D1124CA
:1012A0000895A1E21A2EAA1BBB1BFD010DC0AA1FA7
:1012B000BB1FEE1FFF1FA217B307E407F50720F0BF
:1012C000A21BB30BE40BF50B661F771F881F991F3A
:1012D0001A9469F760957095809590959B01AC0183
:1012E000BD01CF010895A29FB001B39FC001A39F8C
:1012F000700D811D1124911DB29F700D811D11244F
:10130000911D08950E94C40908F481E00895E894AD
:1013100009C097FB3EF490958095709561957F4F3D
:101320008F4F9F4F9923A9F0F92F96E9BB279395EB
:10133000F695879577956795B795F111F8CFFAF4FB
:10134000BB0F11F460FF1BC06F5F7F4F8F4F9F4F2C
:1013500016C0882311F096E911C0772321F09EE88A
:10136000872F762F05C0662371F096E8862F70E0F0
:1013700060E02AF09A95660F771F881FDAF7880FCA
:101380009695879597F90895990F0008550FAA0B20
:10139000E0E8FEEF16161706E807F907C0F0121688
:1013A0001306E407F50798F0621B730B840B950B8B
:1013B00039F40A2661F0232B242B252B21F40895E0
:1013C0000A2609F4A140A6958FEF811D811D08957D
:1013D0000E947309B7FF0895821B930B0895EE0FC7
:0E13E000FF1F0590F491E02D0994F894FFCFC3
:0613EE006A69726B6100E8
:00000001FF
